:020000040800F2
:10000000780C002039030008AD070008A907000894
:1000100045030008F3030008590800080000000029
:10002000000000000000000000000000B107000810
:10003000F703000800000000AF070008B30700083E
:100040005303000853030008530300085303000838
:100050005303000853030008530300085303000828
:100060005303000853030008530300085303000818
:100070005303000853030008530300085303000808
:1000800053030008530300085303000853030008F8
:1000900053030008530300085303000853030008E8
:1000A00053030008530300085303000853030008D8
:1000B00053030008530300085303000853030008C8
:1000C00053030008530300085303000853030008B8
:1000D00053030008530300085303000853030008A8
:1000E00053030008530300080000000053030008F6
:1000F0005303000853030008530300085303000888
:100100005303000853030008530300085303000877
:100110005303000853030008530300085303000867
:100120005303000853030008530300085303000857
:100130005303000853030008530300085303000847
:1001400000000000000000000000000000000000AF
:100150005303000853030008530300085303000827
:100160005303000853030008530300085303000817
:100170005303000853030008530300085303000807
:1001800053030008530300085303000853030008F7
:1001900053030008530300085303000853030008E7
:1001A00053030008530300085303000853030008D7
:1001B00053030008530300085303000853030008C7
:1001C00053030008530300085303000853030008B7
:1001D00053030008530300085303000853030008A7
:1001E0005303000853030008530300085303000897
:1001F0005303000853030008530300085303000887
:100200005303000853030008530300085303000876
:100210005303000853030008530300085303000866
:1002200053030008530300085303000800000000B4
:1002300053030008530300080000000053030008A4
:100240005303000853030008530300085303000836
:100250005303000853030008530300085303000826
:100260005303000853030008530300085303000816
:100270005303000853030008530300080000000064
:1002800053030008000000005303000800000000B2
:10029000000000005303000800F002F800F03CF8F2
:1002A0000AA090E8000C82448344AAF10107DA45D1
:1002B00001D100F031F8AFF2090EBAE80F0013F0E7
:1002C000010F18BFFB1A43F0010318475006000046
:1002D00070060000103A24BF78C878C1FAD85207D7
:1002E00024BF30C830C144BF04680C6070470000B0
:1002F0000023002400250026103A28BF78C1FBD82F
:10030000520728BF30C148BF0B6070471FB500F0CF
:10031000FFFA1FBD10B510BD00F031F81146FFF710
:10032000F5FF00F0E7FA00F04FF803B4FFF7F2FF33
:1003300003BC00F057F8000009488047094800470F
:10034000FEE7FEE7FEE7FEE7FEE7FEE7FEE7FEE785
:10035000FEE7FEE704480549054A064B70470000E2
:10036000BD0700089902000878000020780C0020E2
:100370007802002078020020704770477047754669
:1003800000F02CF8AE4605006946534620F0070001
:10039000854618B020B5FFF7DDFFBDE820404FF0DF
:1003A00000064FF000074FF000084FF0000B21F05F
:1003B0000701AC46ACE8C009ACE8C009ACE8C0092C
:1003C000ACE8C0098D46704710B50446AFF3008015
:1003D0002046BDE81040FFF7A8BF00000048704766
:1003E0001400002001491820ABBEFEE726000200E1
:1003F000704700BFFEE77047F8B502460B46002184
:10040000002600240020824D00BFFCE0012707FAEF
:1004100001F61F6807EA0604B4427CD15F68022F28
:1004200002D05F68122F1AD14FEAD10C02F12007D7
:1004300057F82C004F074FEAD76C0F2707FA0CF735
:10044000B8434FEA417C4FEADC6C1F6907FA0CF7AE
:1004500038434FEAD10C02F1200747F82C0010680E
:100460004FEA410C032707FA0CF7B8431F7907F04E
:1004700003074FEA410C07FA0CF7384310605F6836
:10048000012F08D05F68022F05D05F68112F02D0BE
:100490005F68122F17D190684FEA410C032707FAC3
:1004A0000CF7B8434FEA410CDF6807FA0CF7384302
:1004B0009060506801278F40B8431F79C7F3001739
:1004C0008F4038435060D0684FEA410C032707FA49
:1004D0000CF7B8434FEA410C9F6807FA0CF7384312
:1004E000D0605F6807F08057B7F1805F95D100BF9B
:1004F000484F3F6847F00207DFF818C1CCF800709A
:1005000067463F6807F00207009700BF00BF424FF1
:100510004FEA910C00E075E057F82C008F074FEA86
:10052000177C0F2707FA0CF7B8433C4FBA4201D1AA
:1005300000272DE03A4FBA4201D1012728E0394F78
:10054000BA4201D1022723E0374FBA4201D1032733
:100550001EE0364FBA4201D1042719E0344FBA42A7
:1005600001D1052714E0334FBA4201D106270FE02D
:10057000314FBA4201D107270AE0304FBA4201D1C8
:10058000082705E02E4FBA4201D1092700E00A27CB
:100590004FEA817C4FEA1C7C07FA0CF738431E4F68
:1005A0004FEA910C47F82C002868A0435F6807F4D5
:1005B0008037B7F5803F00D1204328606868A043AA
:1005C0005F6807F40037B7F5003F00D1204368604B
:1005D0004FF0B0473868A0435F6807F48017B7F55D
:1005E000801F00D120434FF0B04738607868A043A7
:1005F0005F6807F40017B7F5001F00D120434FF0E4
:10060000B0477860491C1029FFF400AFF8BD000026
:1006100080000058F44402580804005800000258B2
:100620000004025800080258000C0258001002583A
:100630000014025800180258001C025800200258EA
:10064000002402580AB1018300E041837047000092
:100650000348006803490978084401490860704765
:10066000080000201000002010B5032000F06EF8F4
:100670000F2000F007F808B1012010BD00F028F8A5
:100680000020FAE770B504460E4800784FF47A71FE
:10069000B1FBF0F00C490968B1FBF0F5284600F019
:1006A00069F808B1012070BD102C07D20022214644
:1006B000501E00F00EF80548046001E00120F2E74A
:1006C0000020F0E710000020000000200C000020B7
:1006D00070472DE9F05F80460D46164600F0BEF8E3
:1006E000074639462A46334601F00700C0F1070A9B
:1006F000BAF1040F02D94FF0040A01E0C0F1070A71
:10070000D14600F1040ABAF1070F02D24FF0000AF5
:1007100001E0A0F1030AD4464FF0010A0AFA09FAEF
:10072000AAF1010A0AEA020A0AFA0CFA4FF0010BCE
:100730000BFA0CFBABF1010B0BEA030B4AEA0B04BF
:100740002146404600F092F8BDE8F09F00BF00F05F
:100750000702064B19684FF6FF031940044B0B4381
:1007600043EA0221014B196000BF70470CED00E025
:100770000000FA0570B504462546681EB0F1807F7A
:1007800001D301200FE0681E4FF0E02148610F21E6
:100790004FF0FF3000F06AF800204FF0E021886150
:1007A00007200861002070BD00BFFEE7704770475A
:1007B000704710B5FFF74CFF10BD000020480068DF
:1007C00040F470001E4908601E48006840F00100B7
:1007D0001C49086000201B49103108601948006856
:1007E0001949084017490860002016491831086067
:1007F000091D0860091D0860124928310860091D9B
:100800000860091D0860091D0860091D0860091DB0
:100810000860091D0860091D08600A48006820F486
:1008200080200849086000200649603108600120E6
:1008300006490860C0060249803908607047000018
:1008400088ED00E0004402587FEDF6EA088100518F
:1008500010B5FFF709FF10BD00BFFEE702480068B2
:10086000C0F30220704700000CED00E010B5002836
:1008700004DB0A07130E054A135406E00A07140E98
:10088000034A00F00F031B1FD45410BD00E400E026
:1008900018ED00E000B587B000BF1448006840F0D4
:1008A0000400124908600846006800F00400019046
:1008B00000BF00BF0D200290012003900490032090
:1008C000059002A90A48FFF797FD01221146084842
:1008D000FFF7B8FE012204210548FFF7B3FE01220D
:1008E00008210348FFF7AEFE07B000BDE044025800
:1008F00000080258FFF7ACFFFFF7CCFF00220121F0
:100900000248FFF79FFE00BFFEE700000008025804
:100910004FF04070E1EE100A704700003C090008FB
:100920000000002014000000D40200085009000854
:1009300014000020640C0000F00200080090D003B6
:100940000090D00300000000100000000100000033
:0400000508000339B3
:00000001FF
